{
  "contractName": "Lottery",
  "abi": [
    {
      "constant": true,
      "inputs": [],
      "name": "Manager",
      "outputs": [
        {
          "name": "",
          "type": "address"
        }
      ],
      "payable": false,
      "stateMutability": "view",
      "type": "function",
      "signature": "0x78357e53"
    },
    {
      "constant": true,
      "inputs": [
        {
          "name": "",
          "type": "uint256"
        }
      ],
      "name": "PlayerAddresses",
      "outputs": [
        {
          "name": "",
          "type": "address"
        }
      ],
      "payable": false,
      "stateMutability": "view",
      "type": "function",
      "signature": "0xdfd06d01"
    },
    {
      "inputs": [],
      "payable": false,
      "stateMutability": "nonpayable",
      "type": "constructor",
      "signature": "constructor"
    },
    {
      "payable": true,
      "stateMutability": "payable",
      "type": "fallback"
    },
    {
      "constant": false,
      "inputs": [],
      "name": "EnterLottery",
      "outputs": [],
      "payable": true,
      "stateMutability": "payable",
      "type": "function",
      "signature": "0x30f4c43d"
    },
    {
      "constant": true,
      "inputs": [],
      "name": "GetBalance",
      "outputs": [
        {
          "name": "",
          "type": "uint256"
        }
      ],
      "payable": false,
      "stateMutability": "view",
      "type": "function",
      "signature": "0xf8f8a912"
    },
    {
      "constant": true,
      "inputs": [],
      "name": "GetRandomNumber",
      "outputs": [
        {
          "name": "",
          "type": "uint256"
        }
      ],
      "payable": false,
      "stateMutability": "view",
      "type": "function",
      "signature": "0xfb8c7420"
    },
    {
      "constant": false,
      "inputs": [],
      "name": "GetLotteryWinner",
      "outputs": [
        {
          "name": "",
          "type": "address"
        }
      ],
      "payable": true,
      "stateMutability": "payable",
      "type": "function",
      "signature": "0x1c8b5f9a"
    }
  ],
  "bytecode": "0x608060405234801561001057600080fd5b50336000806101000a81548173ffffffffffffffffffffffffffffffffffffffff021916908373ffffffffffffffffffffffffffffffffffffffff1602179055506108b1806100606000396000f3fe608060405260043610610078576000357c0100000000000000000000000000000000000000000000000000000000900463ffffffff1680631c8b5f9a1461018457806330f4c43d146101ce57806378357e53146101d8578063dfd06d011461022f578063f8f8a912146102aa578063fb8c7420146102d5575b662386f26fc100003411151561011c576040517f08c379a00000000000000000000000000000000000000000000000000000000081526004018080602001828103825260368152602001807f41636365707465642076616c75652069732067726561746572207468616e206f81526020017f7220657175616c20746f20302e30312065746865722e0000000000000000000081525060400191505060405180910390fd5b60013390806001815401808255809150509060018203906000526020600020016000909192909190916101000a81548173ffffffffffffffffffffffffffffffffffffffff021916908373ffffffffffffffffffffffffffffffffffffffff16021790555050005b61018c610300565b604051808273ffffffffffffffffffffffffffffffffffffffff1673ffffffffffffffffffffffffffffffffffffffff16815260200191505060405180910390f35b6101d66104f9565b005b3480156101e457600080fd5b506101ed610605565b604051808273ffffffffffffffffffffffffffffffffffffffff1673ffffffffffffffffffffffffffffffffffffffff16815260200191505060405180910390f35b34801561023b57600080fd5b506102686004803603602081101561025257600080fd5b810190808035906020019092919050505061062a565b604051808273ffffffffffffffffffffffffffffffffffffffff1673ffffffffffffffffffffffffffffffffffffffff16815260200191505060405180910390f35b3480156102b657600080fd5b506102bf610668565b6040518082815260200191505060405180910390f35b3480156102e157600080fd5b506102ea610771565b6040518082815260200191505060405180910390f35b60008060009054906101000a900473ffffffffffffffffffffffffffffffffffffffff1673ffffffffffffffffffffffffffffffffffffffff163373ffffffffffffffffffffffffffffffffffffffff161415156103ec576040517f08c379a00000000000000000000000000000000000000000000000000000000081526004018080602001828103825260238152602001807f4f6e6c79206d616e616765722063616e2075736520746869732066756e63746981526020017f6f6e2e000000000000000000000000000000000000000000000000000000000081525060400191505060405180910390fd5b60006103f6610771565b905060006001805490508281151561040a57fe5b069050600060018281548110151561041e57fe5b9060005260206000200160009054906101000a900473ffffffffffffffffffffffffffffffffffffffff1690508073ffffffffffffffffffffffffffffffffffffffff166108fc3073ffffffffffffffffffffffffffffffffffffffff16319081150290604051600060405180830381858888f193505050501580156104a8573d6000803e3d6000fd5b5060006040519080825280602002602001820160405280156104d95781602001602082028038833980820191505090505b50600190805190602001906104ef9291906107b8565b5080935050505090565b662386f26fc100003411151561059d576040517f08c379a00000000000000000000000000000000000000000000000000000000081526004018080602001828103825260368152602001807f41636365707465642076616c75652069732067726561746572207468616e206f81526020017f7220657175616c20746f20302e30312065746865722e0000000000000000000081525060400191505060405180910390fd5b60013390806001815401808255809150509060018203906000526020600020016000909192909190916101000a81548173ffffffffffffffffffffffffffffffffffffffff021916908373ffffffffffffffffffffffffffffffffffffffff16021790555050565b6000809054906101000a900473ffffffffffffffffffffffffffffffffffffffff1681565b60018181548110151561063957fe5b906000526020600020016000915054906101000a900473ffffffffffffffffffffffffffffffffffffffff1681565b60008060009054906101000a900473ffffffffffffffffffffffffffffffffffffffff1673ffffffffffffffffffffffffffffffffffffffff163373ffffffffffffffffffffffffffffffffffffffff16141515610754576040517f08c379a00000000000000000000000000000000000000000000000000000000081526004018080602001828103825260238152602001807f4f6e6c79206d616e616765722063616e2075736520746869732066756e63746981526020017f6f6e2e000000000000000000000000000000000000000000000000000000000081525060400191505060405180910390fd5b3073ffffffffffffffffffffffffffffffffffffffff1631905090565b600044426001805490506040516020018084815260200183815260200182815260200193505050506040516020818303038152906040528051906020012060019004905090565b828054828255906000526020600020908101928215610831579160200282015b828111156108305782518260006101000a81548173ffffffffffffffffffffffffffffffffffffffff021916908373ffffffffffffffffffffffffffffffffffffffff160217905550916020019190600101906107d8565b5b50905061083e9190610842565b5090565b61088291905b8082111561087e57600081816101000a81549073ffffffffffffffffffffffffffffffffffffffff021916905550600101610848565b5090565b9056fea165627a7a7230582098a813bda90113ddbf37447ba86f93928e792077cff55d3107e351401115e0ff0029",
  "source": "pragma solidity ^0.5.0;\r\n\r\ncontract Lottery {\r\n    \r\n    //----STATE VARIABLES-----\r\n    //Manager = address of the EOA that deployed the contract and start the Lottery\r\n    address public Manager;\r\n    \r\n    //List of all players\r\n    address payable[] public PlayerAddresses;\r\n    \r\n    \r\n    //----CONSTRUCTOR-----\r\n    constructor() public {\r\n        //initialized the Manager state variable\r\n        Manager = msg.sender;\r\n    }\r\n    \r\n    //----FUNCTIONS-----\r\n    //Callback function that will add address to PlayerAddresses\r\n    function () external payable HasValidAmount {\r\n       PlayerAddresses.push(msg.sender); \r\n    }\r\n    \r\n    //Calling this function will add the address to the PlayerAddresses\r\n    function EnterLottery() payable public HasValidAmount {\r\n        PlayerAddresses.push(msg.sender);\r\n    }\r\n    \r\n    //Calling this function will return the current balance of the contract\r\n    function GetBalance() public view Restricted returns (uint256) {\r\n        return address(this).balance;\r\n    }\r\n    \r\n    //Calling this function will generate a number of random kind\r\n    function GetRandomNumber() public view returns (uint256) {\r\n        return uint256(keccak256(abi.encodePacked(block.difficulty, block.timestamp, PlayerAddresses.length)));\r\n    }\r\n    \r\n    //Calling this function will give us the winner\r\n    function GetLotteryWinner() public payable  Restricted returns (address) {\r\n        uint randomNo = GetRandomNumber();\r\n        uint winnerNo = (randomNo % PlayerAddresses.length);\r\n        \r\n        address payable winnerAddress = PlayerAddresses[winnerNo];\r\n       \r\n        //transfer the balance to the winner\r\n        winnerAddress.transfer(address(this).balance);\r\n        \r\n        //reset the PlayerAddresses\r\n        PlayerAddresses = new address payable[](0);\r\n        \r\n        return winnerAddress;\r\n    }\r\n    \r\n    //----MODIFIERS\r\n    //Modifier that will check if the ether amount being entered is greater than 0.01 \r\n    modifier HasValidAmount() {\r\n        require(msg.value > 0.01 ether,\"Accepted value is greater than or equal to 0.01 ether.\");\r\n        _;    \r\n    }\r\n    \r\n    //Modifier that will check if the address is equal to manager address\r\n    modifier Restricted() {\r\n        require(msg.sender == Manager,\"Only manager can use this function.\");\r\n        _;\r\n    }\r\n}",
  "sourcePath": "C:/Users/ma2/git-dvcs/solidity-truffle-demo/lottery-contract-dapps-web3.0/contracts/Lottery.sol",
  "compiler": {
    "name": "solc",
    "version": "0.5.0+commit.1d4f565a.Emscripten.clang"
  },
  "schemaVersion": "3.0.1",
  "updatedAt": "2019-01-31T18:12:52.862Z",
  "devdoc": {
    "methods": {}
  },
  "userdoc": {
    "methods": {}
  }
}